{
  "_format": "hh-sol-artifact-1",
  "contractName": "LuckyDraw",
  "sourceName": "contracts/LuckyDraw.sol",
  "abi": [
    {
      "inputs": [
        {
          "internalType": "uint256",
          "name": "inputPrize",
          "type": "uint256"
        }
      ],
      "stateMutability": "payable",
      "type": "constructor"
    },
    {
      "anonymous": false,
      "inputs": [
        {
          "indexed": true,
          "internalType": "address",
          "name": "from",
          "type": "address"
        },
        {
          "indexed": true,
          "internalType": "uint256",
          "name": "timestamp",
          "type": "uint256"
        },
        {
          "indexed": true,
          "internalType": "bool",
          "name": "won",
          "type": "bool"
        },
        {
          "indexed": false,
          "internalType": "uint256",
          "name": "oldBalance",
          "type": "uint256"
        },
        {
          "indexed": false,
          "internalType": "uint256",
          "name": "newBalance",
          "type": "uint256"
        }
      ],
      "name": "NewDraw",
      "type": "event"
    },
    {
      "inputs": [],
      "name": "draw",
      "outputs": [],
      "stateMutability": "nonpayable",
      "type": "function"
    },
    {
      "inputs": [],
      "name": "prize",
      "outputs": [
        {
          "internalType": "uint256",
          "name": "",
          "type": "uint256"
        }
      ],
      "stateMutability": "view",
      "type": "function"
    }
  ],
  "bytecode": "0x608060405260405161083538038061083583398181016040528101906100259190610135565b60003411610068576040517f08c379a000000000000000000000000000000000000000000000000000000000815260040161005f906101e5565b60405180910390fd5b600081116100ab576040517f08c379a00000000000000000000000000000000000000000000000000000000081526004016100a290610251565b60405180910390fd5b8034116100ed576040517f08c379a00000000000000000000000000000000000000000000000000000000081526004016100e4906102e3565b60405180910390fd5b8060008190555050610303565b600080fd5b6000819050919050565b610112816100ff565b811461011d57600080fd5b50565b60008151905061012f81610109565b92915050565b60006020828403121561014b5761014a6100fa565b5b600061015984828501610120565b91505092915050565b600082825260208201905092915050565b7f53656e6420736f6d6520457468657220746f206465706c6f792074686520636f60008201527f6e74726163740000000000000000000000000000000000000000000000000000602082015250565b60006101cf602683610162565b91506101da82610173565b604082019050919050565b600060208201905081810360008301526101fe816101c2565b9050919050565b7f5365742061207072697a652067726561746572207468616e2030000000000000600082015250565b600061023b601a83610162565b915061024682610205565b602082019050919050565b6000602082019050818103600083015261026a8161022e565b9050919050565b7f5072697a652069732067726561746572207468616e20696e6974616c2062616c60008201527f616e636500000000000000000000000000000000000000000000000000000000602082015250565b60006102cd602483610162565b91506102d882610271565b604082019050919050565b600060208201905081810360008301526102fc816102c0565b9050919050565b610523806103126000396000f3fe608060405234801561001057600080fd5b50600436106100365760003560e01c80630eecae211461003b578063e3ac5d2614610045575b600080fd5b610043610063565b005b61004d610120565b60405161005a9190610242565b60405180910390f35b60004790506000610072610126565b905080156100c8576000548210156100bf576040517f08c379a00000000000000000000000000000000000000000000000000000000081526004016100b6906102ba565b60405180910390fd5b6100c7610143565b5b801515423373ffffffffffffffffffffffffffffffffffffffff167f75aee3bd05171273fafc787ed36efbc5befdd5b0f7afd6712d70e73928aabebc85476040516101149291906102da565b60405180910390a45050565b60005481565b60008060026101336101f4565b61013d9190610332565b14905090565b60003373ffffffffffffffffffffffffffffffffffffffff1660005460405161016b90610394565b60006040518083038185875af1925050503d80600081146101a8576040519150601f19603f3d011682016040523d82523d6000602084013e6101ad565b606091505b50509050806101f1576040517f08c379a00000000000000000000000000000000000000000000000000000000081526004016101e8906103f5565b60405180910390fd5b50565b600033444260405160200161020b939291906104b0565b6040516020818303038152906040528051906020012060001c905090565b6000819050919050565b61023c81610229565b82525050565b60006020820190506102576000830184610233565b92915050565b600082825260208201905092915050565b7f496e73756666696369656e742062616c616e636520696e20636f6e7472616374600082015250565b60006102a460208361025d565b91506102af8261026e565b602082019050919050565b600060208201905081810360008301526102d381610297565b9050919050565b60006040820190506102ef6000830185610233565b6102fc6020830184610233565b9392505050565b7f4e487b7100000000000000000000000000000000000000000000000000000000600052601260045260246000fd5b600061033d82610229565b915061034883610229565b92508261035857610357610303565b5b828206905092915050565b600081905092915050565b50565b600061037e600083610363565b91506103898261036e565b600082019050919050565b600061039f82610371565b9150819050919050565b7f4661696c656420746f2073656e64204574686572000000000000000000000000600082015250565b60006103df60148361025d565b91506103ea826103a9565b602082019050919050565b6000602082019050818103600083015261040e816103d2565b9050919050565b600073ffffffffffffffffffffffffffffffffffffffff82169050919050565b600061044082610415565b9050919050565b60008160601b9050919050565b600061045f82610447565b9050919050565b600061047182610454565b9050919050565b61048961048482610435565b610466565b82525050565b6000819050919050565b6104aa6104a582610229565b61048f565b82525050565b60006104bc8286610478565b6014820191506104cc8285610499565b6020820191506104dc8284610499565b60208201915081905094935050505056fea2646970667358221220fbef80a5ff1aa3263eefeed3fb5379dd9739206aa81bdd5a1b496f0e7d65d1f464736f6c63430008110033",
  "linkReferences": {},
  "deployedLinkReferences": {}
}