{
  "_format": "hh-sol-artifact-1",
  "contractName": "LuckyDraw",
  "sourceName": "contracts/LuckyDraw.sol",
  "abi": [
    {
      "inputs": [
        {
          "internalType": "uint256",
          "name": "startingBalance",
          "type": "uint256"
        }
      ],
      "stateMutability": "nonpayable",
      "type": "constructor"
    },
    {
      "anonymous": false,
      "inputs": [
        {
          "indexed": true,
          "internalType": "address",
          "name": "from",
          "type": "address"
        },
        {
          "indexed": true,
          "internalType": "uint256",
          "name": "timestamp",
          "type": "uint256"
        },
        {
          "indexed": true,
          "internalType": "bool",
          "name": "won",
          "type": "bool"
        },
        {
          "indexed": false,
          "internalType": "uint256",
          "name": "oldBalance",
          "type": "uint256"
        },
        {
          "indexed": false,
          "internalType": "uint256",
          "name": "newBalance",
          "type": "uint256"
        }
      ],
      "name": "NewDraw",
      "type": "event"
    },
    {
      "inputs": [],
      "name": "balance",
      "outputs": [
        {
          "internalType": "uint256",
          "name": "",
          "type": "uint256"
        }
      ],
      "stateMutability": "view",
      "type": "function"
    },
    {
      "inputs": [],
      "name": "draw",
      "outputs": [],
      "stateMutability": "nonpayable",
      "type": "function"
    }
  ],
  "bytecode": "0x608060405234801561001057600080fd5b5060405161068c38038061068c833981810160405281019061003291906100bd565b60008111610075576040517f08c379a000000000000000000000000000000000000000000000000000000000815260040161006c9061016d565b60405180910390fd5b806000819055505061018d565b600080fd5b6000819050919050565b61009a81610087565b81146100a557600080fd5b50565b6000815190506100b781610091565b92915050565b6000602082840312156100d3576100d2610082565b5b60006100e1848285016100a8565b91505092915050565b600082825260208201905092915050565b7f5374617274696e672062616c616e6365206d757374206265206772656174657260008201527f207468616e203000000000000000000000000000000000000000000000000000602082015250565b60006101576027836100ea565b9150610162826100fb565b604082019050919050565b600060208201905081810360008301526101868161014a565b9050919050565b6104f08061019c6000396000f3fe608060405234801561001057600080fd5b50600436106100365760003560e01c80630eecae211461003b578063b69ef8a814610045575b600080fd5b610043610063565b005b61004d610183565b60405161005a919061022a565b60405180910390f35b600080549050610071610189565b1561012057600160005410156100bc576040517f08c379a00000000000000000000000000000000000000000000000000000000081526004016100b3906102a2565b60405180910390fd5b6100c46101a6565b60011515423373ffffffffffffffffffffffffffffffffffffffff167f75aee3bd05171273fafc787ed36efbc5befdd5b0f7afd6712d70e73928aabebc846000546040516101139291906102c2565b60405180910390a4610180565b6101286101c1565b60001515423373ffffffffffffffffffffffffffffffffffffffff167f75aee3bd05171273fafc787ed36efbc5befdd5b0f7afd6712d70e73928aabebc846000546040516101779291906102c2565b60405180910390a45b50565b60005481565b60008060026101966101dc565b6101a0919061031a565b14905090565b60016000808282546101b8919061037a565b92505081905550565b60016000808282546101d391906103ae565b92505081905550565b60003344426040516020016101f39392919061047d565b6040516020818303038152906040528051906020012060001c905090565b6000819050919050565b61022481610211565b82525050565b600060208201905061023f600083018461021b565b92915050565b600082825260208201905092915050565b7f496e73756666696369656e742062616c616e636520696e20636f6e7472616374600082015250565b600061028c602083610245565b915061029782610256565b602082019050919050565b600060208201905081810360008301526102bb8161027f565b9050919050565b60006040820190506102d7600083018561021b565b6102e4602083018461021b565b9392505050565b7f4e487b7100000000000000000000000000000000000000000000000000000000600052601260045260246000fd5b600061032582610211565b915061033083610211565b9250826103405761033f6102eb565b5b828206905092915050565b7f4e487b7100000000000000000000000000000000000000000000000000000000600052601160045260246000fd5b600061038582610211565b915061039083610211565b92508282039050818111156103a8576103a761034b565b5b92915050565b60006103b982610211565b91506103c483610211565b92508282019050808211156103dc576103db61034b565b5b92915050565b600073ffffffffffffffffffffffffffffffffffffffff82169050919050565b600061040d826103e2565b9050919050565b60008160601b9050919050565b600061042c82610414565b9050919050565b600061043e82610421565b9050919050565b61045661045182610402565b610433565b82525050565b6000819050919050565b61047761047282610211565b61045c565b82525050565b60006104898286610445565b6014820191506104998285610466565b6020820191506104a98284610466565b60208201915081905094935050505056fea26469706673582212200e931c665a3c084825df3a208d2eec4ef7c3e5e97ad90ab8abbda09f82ab70f564736f6c63430008110033",
  "linkReferences": {},
  "deployedLinkReferences": {}
}