{
  "_format": "hh-sol-artifact-1",
  "contractName": "LuckyDraw",
  "sourceName": "contracts/LuckyDraw.sol",
  "abi": [
    {
      "inputs": [
        {
          "internalType": "uint256",
          "name": "startingBalance",
          "type": "uint256"
        }
      ],
      "stateMutability": "nonpayable",
      "type": "constructor"
    },
    {
      "anonymous": false,
      "inputs": [],
      "name": "lost",
      "type": "event"
    },
    {
      "anonymous": false,
      "inputs": [],
      "name": "won",
      "type": "event"
    },
    {
      "inputs": [],
      "name": "balance",
      "outputs": [
        {
          "internalType": "uint256",
          "name": "",
          "type": "uint256"
        }
      ],
      "stateMutability": "view",
      "type": "function"
    },
    {
      "inputs": [],
      "name": "draw",
      "outputs": [],
      "stateMutability": "nonpayable",
      "type": "function"
    }
  ],
  "bytecode": "0x608060405234801561001057600080fd5b50604051610606380380610606833981810160405281019061003291906100bd565b60008111610075576040517f08c379a000000000000000000000000000000000000000000000000000000000815260040161006c9061016d565b60405180910390fd5b806000819055505061018d565b600080fd5b6000819050919050565b61009a81610087565b81146100a557600080fd5b50565b6000815190506100b781610091565b92915050565b6000602082840312156100d3576100d2610082565b5b60006100e1848285016100a8565b91505092915050565b600082825260208201905092915050565b7f5374617274696e672062616c616e6365206d757374206265206772656174657260008201527f207468616e203000000000000000000000000000000000000000000000000000602082015250565b60006101576027836100ea565b9150610162826100fb565b604082019050919050565b600060208201905081810360008301526101868161014a565b9050919050565b61046a8061019c6000396000f3fe608060405234801561001057600080fd5b50600436106100365760003560e01c80630eecae211461003b578063b69ef8a814610045575b600080fd5b610043610063565b005b61004d610126565b60405161005a91906101cd565b60405180910390f35b61006b61012c565b156100ef57600160005410156100b6576040517f08c379a00000000000000000000000000000000000000000000000000000000081526004016100ad90610245565b60405180910390fd5b7f12c8052f79fe90806f6b98fc3c820eda7c0f62f3f17141c3b78a983ee02ebbd860405160405180910390a16100ea610149565b610124565b7f3b3493d3f2c3bcee4dee5cee195a6d5ade9ca7cf88ce14271e631c37f5318ae360405160405180910390a1610123610164565b5b565b60005481565b600080600261013961017f565b6101439190610294565b14905090565b600160008082825461015b91906102f4565b92505081905550565b60016000808282546101769190610328565b92505081905550565b6000334442604051602001610196939291906103f7565b6040516020818303038152906040528051906020012060001c905090565b6000819050919050565b6101c7816101b4565b82525050565b60006020820190506101e260008301846101be565b92915050565b600082825260208201905092915050565b7f496e73756666696369656e742062616c616e636520696e20636f6e7472616374600082015250565b600061022f6020836101e8565b915061023a826101f9565b602082019050919050565b6000602082019050818103600083015261025e81610222565b9050919050565b7f4e487b7100000000000000000000000000000000000000000000000000000000600052601260045260246000fd5b600061029f826101b4565b91506102aa836101b4565b9250826102ba576102b9610265565b5b828206905092915050565b7f4e487b7100000000000000000000000000000000000000000000000000000000600052601160045260246000fd5b60006102ff826101b4565b915061030a836101b4565b9250828203905081811115610322576103216102c5565b5b92915050565b6000610333826101b4565b915061033e836101b4565b9250828201905080821115610356576103556102c5565b5b92915050565b600073ffffffffffffffffffffffffffffffffffffffff82169050919050565b60006103878261035c565b9050919050565b60008160601b9050919050565b60006103a68261038e565b9050919050565b60006103b88261039b565b9050919050565b6103d06103cb8261037c565b6103ad565b82525050565b6000819050919050565b6103f16103ec826101b4565b6103d6565b82525050565b600061040382866103bf565b60148201915061041382856103e0565b60208201915061042382846103e0565b60208201915081905094935050505056fea26469706673582212205a8896766451e0b644147e6927fc1492746f18fd45ad275876ae61d377c46a0c64736f6c63430008110033",
  "linkReferences": {},
  "deployedLinkReferences": {}
}